:020000041FFFDC
:10183800B821FF1F0D19FF1F1519FF1F1719FF1FCB
:101848000000000000000000000000000000000090
:101858000000000000000000000000001919FF1F30
:1018680000000000000000001B19FF1F1D19FF1FCA
:101878001F19FF1F1F19FF1F1F19FF1F1F19FF1F08
:101888001F19FF1F1F19FF1F1F19FF1F1F19FF1FF8
:101898001F19FF1F1F19FF1F1F19FF1F1F19FF1FE8
:1018A8001F19FF1F1F19FF1F1F19FF1F1F19FF1FD8
:1018B8001F19FF1F1F19FF1F1F19FF1F1F19FF1FC8
:1018C8000000000000000000000000000000000010
:1018D8000000000000000000000000000000000000
:1018E8001F19FF1F000000001F19FF1F1F19FF1FEE
:1018F8000348854600F038F800480047411CFF1FA0
:10190800B821FF1F0448804704480047FEE7FEE768
:10191800FEE7FEE7FEE7FEE7AD19FF1FF918FF1F18
:1019280003460B439B0703D009E008C9121F08C0F0
:10193800042AFAD203E00B780370401C491C521E9B
:10194800F9D27047D2B201E00270401C491EFBD2A6
:1019580070470022F6E710B513460A4604461946B2
:10196800FFF7F0FF204610BD064C0125064E05E0A6
:10197800E36807CC2B430C3C98471034B442F7D3A8
:10198800FFF7BAFFCC1CFF1FDC1CFF1F03B4014884
:10199800019001BDEDA5000003B40148019001BD0F
:1019A800ADAE0000024901480860704740787D01EB
:1019B800E01CFF1F02E008C8121F08C1002AFAD164
:1019C80070477047002001E001C1121F002AFBD1B7
:1019D80070470324204600F097F80121204600F0C4
:1019E80085F8FEE730B5C21F0125074C9540002950
:1019F80005D0002100F058F82068284301E020684D
:101A0800A843206030BD000000380040054B01228B
:101A18008240D868002901D0104300E09043D86084
:101A2800704700000038004010B5D4210348FFF784
:101A380090FF02490120086010BD0000E41CFF1F50
:101A4800054B0122801E82405869002901D01043AD
:101A580000E09043586170470038004030B50D46AB
:101A680004460021FFF7D2FF022C01D0032C03D13A
:101A780001212046FFF7E4FF00212046FFF7B2FFCF
:101A8800074A0120A0405168012D06D081435160CA
:101A9800044902200919087130BD0143516030BD65
:101AA80000800040E41CFF1F70B5420083180D4AF7
:101AB8009C18A5786478D65C641B0122641CA2403B
:101AC800521EAA40084BA940132806D2B000C018DD
:101AD800836893430B43836070BD58699043084300
:101AE800586170BD701CFF1F00F00040054B0122BB
:101AF80082401868002901D0104300E09043186024
:101B08007047000000800040034A00B50121121808
:101B18001171FFF7A3FF00BDE41CFF1F30B585B0AE
:101B2800142216496846FFF7FBFE00246D46600044
:101B380041194978285CFFF7B7FF641CE4B20A2C06
:101B4800F5D30F484169C200914305221204891850
:101B580041614169012252061143416141690322F1
:101B6800520591430122520589184161002000F075
:101B780013F800F007F805B030BD0000B81CFF1FCF
:101B880000F0004003484169012292061143416177
:101B98007047000000F00040400900D00021044ACE
:101BA800D0691F235B04984349040843D0617047F8
:101BB80000F0004030B540251C4C012802D0002818
:101BC80011D027E06069052140014009C906401885
:101BD8006061E0691649084016494018E061E0690B
:101BE8002843E06116E000210A20FFF75DFF00218D
:101BF8000B20FFF759FFE069032109020843E06160
:101C0800E069A843E06160690B21400140090907C8
:101C18004018606160690121090708436061A06993
:101C2800032149048843A06130BD000000F0004052
:101C38007F00FEFF80FD0100094C02202070094D45
:101C480001202870FFF76AFF2078FFF79FFE2878A9
:101C5800FFF7B0FFFFF7A0FEFFF7E6FEFFF7B9FEBC
:101C68004A0AFF1FDC1CFF1F0002010005040008D0
:101C780007000B0A001716001D1C010201010504CC
:101C8800010E0D011110011413011716011A190282
:101C98000201020B0A020E0D0211100214130217A0
:101CA80016030504030807030B0A030E0D000000C2
:101CB80002000300050006000700080009000A00EA
:101CC8000C000D00E41CFF1FE41CFF1FD4040000DF
:0C1CD800CC19FF1F0000000040787D01C7
:040000051FFF18F9C8
:00000001FF
