:020000041FFFDC
:10183800C821FF1F0D19FF1F1519FF1F1719FF1FBB
:101848000000000000000000000000000000000090
:101858000000000000000000000000001919FF1F30
:1018680000000000000000001B19FF1F1D19FF1FCA
:101878001F19FF1F1F19FF1F1F19FF1F1F19FF1F08
:101888001F19FF1F1F19FF1F1F19FF1F1F19FF1FF8
:101898001F19FF1F1F19FF1F1F19FF1F1F19FF1FE8
:1018A8001F19FF1F1F19FF1F1F19FF1F1F19FF1FD8
:1018B8001F19FF1F1F19FF1F1F19FF1F1F19FF1FC8
:1018C8000000000000000000000000000000000010
:1018D8000000000000000000000000000000000000
:1018E8001F19FF1F000000001F19FF1F1F19FF1FEE
:1018F8000348854600F038F800480047611CFF1F80
:10190800C821FF1F0448804704480047FEE7FEE758
:10191800FEE7FEE7FEE7FEE7C519FF1FF918FF1F00
:1019280003460B439B0703D009E008C9121F08C0F0
:10193800042AFAD203E00B780370401C491C521E9B
:10194800F9D27047D2B201E00270401C491EFBD2A6
:1019580070470022F6E710B513460A4604461946B2
:10196800FFF7F0FF204610BD064C0125064E05E0A6
:10197800E36807CC2B430C3C98471034B442F7D3A8
:10198800FFF7BAFFDC1CFF1FEC1CFF1F03B4014864
:10199800019001BD0189000003B40148019001BD17
:1019A800EDA5000003B40148019001BDADAE0000F3
:1019B80003B40148019001BD456B0100024901488B
:1019C8000860704740787D01F01CFF1F02E008C8DE
:1019D800121F08C1002AFAD170477047002001E0A1
:1019E80001C1121F002AFBD17047000003252846B9
:1019F80000F0A4F8074E0024641CE00F001940080A
:101A08004000241AE1B2284600F08AF83046FFF771
:101A1800BDFFF1E71027000030B5C21F0125074CB4
:101A28009540002905D0002100F058F82068284387
:101A380001E02068A843206030BD00000038004065
:101A4800054B01228240D868002901D0104300E0EC
:101A58009043D860704700000038004010B5D4218A
:101A68000348FFF776FF02490120086010BD000017
:101A7800F41CFF1F054B0122801E82405869002973
:101A880001D0104300E0904358617047003800408F
:101A980030B50D4604460021FFF7D2FF022C01D0D5
:101AA800032C03D101212046FFF7E4FF0021204643
:101AB800FFF7B2FF074A0120A0405168012D06D068
:101AC80081435160044902200919087130BD01435E
:101AD800516030BD00800040F41CFF1F70B542000B
:101AE80083180D4A9C18A5786478D65C641B01227B
:101AF800641CA240521EAA40D243A940074B0A4385
:101B0800132805D2B000C01881680A40826070BDF1
:101B1800586902405A6170BD801CFF1F00F00040E8
:101B2800054B012282401868002901D0104300E0CB
:101B3800904318607047000000800040034A00B5D9
:101B4800012112181171FFF7A3FF00BDF41CFF1F3C
:101B580030B585B0142218496846FFF7E1FE002425
:101B68006D46600041194978285CFFF7B7FF641C8F
:101B7800E4B20A2CF5D3114841690522D2039143F6
:101B88004161416941614169012292059143416185
:101B9800002000F01FF800F017F809480078FFF758
:101BA800FBFE0848007800F025F8FFF7FBFE01204F
:101BB800FFF7FEFE05B030BDC81CFF1F00F0004057
:101BC8004A0AFF1FEC1CFF1F014841694161704729
:101BD80000F00040400900D000210448C269044BCD
:101BE800490419430A40C2617047000000F00040F0
:101BF800FFFFC1FF10B5174C012802D000280DD0F7
:101C08001FE060690D21090788436061E0690121CF
:101C180049028843E061E069E06112E000210A209E
:101C2800FFF75CFF00210B20FFF758FFE069E06138
:101C3800E06940218843E06160690921C906884359
:101C4800606160696061A069032149048843A061FB
:101C580010BD000000F00040054902200870054949
:101C680001200870FFF774FFFFF7F8FEFFF7BEFECC
:101C78004A0AFF1FEC1CFF1F0002010005040008B0
:101C880007000B0A001716001D1C010201010504BC
:101C9800010E0D011110011413011716011A190272
:101CA8000201020B0A020E0D021110021413021790
:101CB80016030504030807030B0A030E0D000000B2
:101CC80002000300050006000700080009000A00DA
:101CD8000C000D00F41CFF1FF41CFF1FD4040000AF
:0C1CE800E419FF1F0000000040787D019F
:040000051FFF18F9C8
:00000001FF
