:020000041FFFDC
:101838007822FF1F0D19FF1F1519FF1F1719FF1F0A
:101848000000000000000000000000000000000090
:101858000000000000000000000000001919FF1F30
:1018680000000000000000001B19FF1F1D19FF1FCA
:101878001F19FF1F1F19FF1F1F19FF1F1F19FF1F08
:101888001F19FF1F1F19FF1F1F19FF1F1F19FF1FF8
:101898001F19FF1F1F19FF1F1F19FF1F1F19FF1FE8
:1018A8001F19FF1F1F19FF1F1F19FF1F1F19FF1FD8
:1018B8001F19FF1F1F19FF1F1F19FF1F1F19FF1FC8
:1018C8000000000000000000000000000000000010
:1018D8000000000000000000000000000000000000
:1018E8001F19FF1F000000001F19FF1F1F19FF1FEE
:1018F8000348854600F038F8004800478D1CFF1F54
:101908007822FF1F0448804704480047FEE7FEE7A7
:10191800FEE7FEE7FEE7FEE7E919FF1FF918FF1FDC
:1019280003460B439B0703D009E008C9121F08C0F0
:10193800042AFAD203E00B780370401C491C521E9B
:10194800F9D27047D2B201E00270401C491EFBD2A6
:1019580070470022F6E710B513460A4604461946B2
:10196800FFF7F0FF204610BD064C0125064E05E0A6
:10197800E36807CC2B430C3C98471034B442F7D3A8
:10198800FFF7BAFF8C1DFF1F9C1DFF1F03B4014802
:10199800019001BD0189000003B40148019001BD17
:1019A800B9AE000003B40148019001BDEDA50000E7
:1019B80003B40148019001BDADAE000003B4014875
:1019C800019001BD456B010003B40148019001BDC0
:1019D800C9A9000003B40148019001BD9DA90000F8
:1019E800024901480860704740787D01A01DFF1F2B
:1019F80002E008C8121F08C1002AFAD170477047D0
:101A0800002001E001C1121F002AFBD17047032505
:101A1800284600F0CDF800240126F603641CE00FE8
:101A2800001940084000241AE1B2284600F0B2F834
:101A3800002C03D0A020FFF7A9FFEFE73046FFF7FF
:101A4800ABFFEBE770B504460325284600F0B0F875
:101A5800C32676010DE00121284600F09BF8A0205E
:101A6800FFF794FF0021284600F094F83046FFF76E
:101A78008DFF641EEFD27D20C001FFF787FF70BD88
:101A880010B50320FFF7DEFF10BD000030B5C21F00
:101A98000125074C9540002905D0002100F058F891
:101AA8002068284301E02068A843206030BD00007A
:101AB80000380040054B01228240D868002901D037
:101AC800104300E09043D8607047000000380040A1
:101AD80010B5D4210348FFF73CFF024901200860F4
:101AE80010BD0000A41DFF1F054B0122801E82406F
:101AF8005869002901D0104300E0904358617047AD
:101B08000038004030B50D4604460021FFF7D2FFEB
:101B1800022C01D0032C03D101212046FFF7E4FF5A
:101B280000212046FFF7B2FF074A0120A040516874
:101B3800012D06D08143516004490220091908711A
:101B480030BD0143516030BD00800040A41DFF1F1F
:101B580070B5420083180D4A9C18A5786478D65C45
:101B6800641B0122641CA240521EAA40D243A94011
:101B7800074B0A43132805D2B000C01881680A40F1
:101B8800826070BD586902405A6170BD301DFF1FE8
:101B980000F00040054B012282401868002901D05E
:101BA800104300E090431860704700000080004038
:101BB800034A00B5012112181171FFF7A3FF00BDF8
:101BC800A41DFF1F30B585B0142213496846FFF7DE
:101BD800A7FE00246D46600041194978285CFFF78C
:101BE800B7FF641CE4B20A2CF5D30C4841690522FE
:101BF800D2039143416141694161416901229205E2
:101C080091434161C1691F2252049143C1614169F5
:101C1800416105B030BD0000781DFF1F00F0004095
:101C280010B5174C012802D000280DD01FE06069BC
:101C38000D21090788436061E06901214902884351
:101C4800E061E069E06112E000210A20FFF780FF0F
:101C580000210B20FFF77CFFE069E061E06940218B
:101C68008843E06160690921C90688436061606949
:101C78006061A069032149048843A06110BD000088
:101C880000F00040214A22490020224C03466428E3
:101C980038D006DC3D2835D03F2833D0402804D141
:101CA80030E0D4282ED0D5282CD08500545185007A
:101CB800401C4B51FF28EADD0846174A80308260F5
:101CC800164A4A61192292018A613721C160144C6F
:101CD80002202070134D01202870FFF773FF207831
:101CE800FFF760FE2878FFF79BFFFFF761FE0120F2
:101CF800FFF764FEFFF7ECFEFFF766FEFFF76AFEEC
:101D0800FFF785FE85005351D1E700000000FF1F53
:101D18000004FF1F891AFF1F7822FF1F80C3C90113
:101D28004A0AFF1F9C1DFF1F00020100050400084E
:101D380007000B0A001716001D1C0102010105040B
:101D4800010E0D011110011413011716011A1902C1
:101D58000201020B0A020E0D0211100214130217DF
:101D680016030504030807030B0A030E0D00000001
:101D780002000300050006000700080009000A0029
:101D88000C000D00A41DFF1FA41DFF1FD40400009C
:0C1D9800081AFF1F0000000040787D01C9
:040000051FFF18F9C8
:00000001FF
