:020000041FFFDC
:10000000000000009D1EFF1F201FFF1F241FFF1F59
:10001000641FFF1F0000000000000000000000003F
:1000200000000000000000000000000000000000D0
:1000300000000000000000000000000000000000C0
:1000400000000000000000000000000000000000B0
:1000500000000000000000000000000000000000A0
:100060000000000000000000000000000000000090
:100070000000000000000000000000000000000080
:100080000000000000000000000000000000000070
:100090000000000000000000000000000000000060
:1000A0000000000000000000000000000000000050
:1000B0000000000000000000000000000000000040
:1000C0000000000000000000000000000000000030
:1000D0000000000000000000000000000000000020
:1000E0000000000000000000000000000000000010
:1000F0000000000000000000000000000000000000
:1001000000000000000000000000000000000000EF
:1001100000000000000000000000000000000000DF
:1001200000000000000000000000000000000000CF
:1001300000000000000000000000000000000000BF
:1001400000000000000000000000000000000000AF
:10015000000000000000000000000000000000009F
:10016000000000000000000000000000000000008F
:10017000000000000000000000000000000000007F
:10018000000000000000000000000000000000006F
:10019000A51DFF1FB11DFF1F000000000000000093
:1001A000000000000000000000000000000000004F
:1001B000000000000000000000000000000000003F
:1001C000000000000000000000000000000000002F
:1001D000000000000000000000000000000000001F
:1001E000000000000000000000000000000000000F
:1001F00000000000000000000000000000000000FF
:1002000000000000000000000000000000000000EE
:1002100000000000000000000000000000000000DE
:1002200000000000000000000000000000000000CE
:1002300000000000000000000000000000000000BE
:1002400000000000000000000000000000000000AE
:10025000000000000000000000000000000000009E
:10026000000000000000000000000000000000008E
:10027000000000000000000000000000000000007E
:10028000000000000000000000000000000000006E
:10029000000000000000000000000000000000005E
:1002A000000000000000000000000000000000004E
:1002B000000000000000000000000000000000003E
:1002C000000000000000000000000000000000002E
:1002D000000000000000000000000000000000001E
:1002E000000000000000000000000000000000000E
:1002F00000000000000000000000000000000000FE
:1003000000000000000000000000000000000000ED
:1003100000000000000000000000000000000000DD
:1003200000000000000000000000000000000000CD
:1003300000000000000000000000000000000000BD
:1003400000000000000000000000000000000000AD
:10035000000000000000000000000000000000009D
:10036000000000000000000000000000000000008D
:10037000691EFF1F000000000000000000000000D8
:10038000000000000000000000000000000000006D
:10039000000000000000000000000000000000005D
:1003A000000000000000000000000000000000004D
:1003B000000000000000000000000000000000003D
:1003C000000000000000000000000000000000002D
:1003D000000000000000000000000000000000001D
:1003E000000000000000000000000000000000000D
:1003F00000000000000000000000000000000000FD
:0C04000001FF01FF01FF01FF910000005F
:020000041FFFDC
:101838005028FF1F0D19FF1F1519FF1F1719FF1F2C
:101848000000000000000000000000000000000090
:101858000000000000000000000000001919FF1F30
:1018680000000000000000001B19FF1F1D19FF1FCA
:101878001F19FF1F1F19FF1F1F19FF1F1F19FF1F08
:101888001F19FF1F1F19FF1F1F19FF1F1F19FF1FF8
:101898001F19FF1F1F19FF1F1F19FF1F1F19FF1FE8
:1018A8001F19FF1F1F19FF1F1F19FF1F1F19FF1FD8
:1018B8001F19FF1F1F19FF1F1F19FF1F1F19FF1FC8
:1018C8000000000000000000000000000000000010
:1018D8000000000000000000000000000000000000
:1018E8001F19FF1F000000001F19FF1F1F19FF1FEE
:1018F8000348854600F038F800480047751EFF1F6A
:101908005028FF1F0448804704480047FEE7FEE7C9
:10191800FEE7FEE7FEE7FEE7FD1AFF1FF918FF1FC7
:1019280003460B439B0703D009E008C9121F08C0F0
:10193800042AFAD203E00B780370401C491C521E9B
:10194800F9D27047D2B201E00270401C491EFBD2A6
:1019580070470022F6E710B513460A4604461946B2
:10196800FFF7F0FF204610BD064C0125064E05E0A6
:10197800E36807CC2B430C3C98471034B442F7D3A8
:10198800FFF7BAFF281FFF1F581FFF1F30B58C181D
:101998000278401C13071B0F01D10378401C120961
:1019A80006D10278401C03E005780D70401C491CE4
:1019B8005B1EF9D101E00B70491C521EFBD1A142FC
:1019C800E6D3002030BD000003B40148019001BDFA
:1019D80075A9000003B40148019001BD0D52010032
:1019E80003B40148019001BDDD0A010003B40148B8
:1019F800019001BD9DA9000003B40148019001BDFB
:101A08000189000003B40148019001BD8B52010017
:101A180003B40148019001BDED4A010003B4014837
:101A2800019001BDA54F010003B40148019001BD1B
:101A38008552010003B40148019001BDB54C010075
:101A480003B40148019001BDEDA5000003B40148AD
:101A5800019001BDADAE000003B40148019001BD85
:101A6800456B010003B40148019001BD49730100B1
:101A780003B40148019001BDCD72010003B40148CF
:101A8800019001BD3D4B010003B40148019001BD27
:101A9800154D010010B5FFF797FF00210846FFF725
:101AA80099FFFFF79DFFFFF7A1FF10BD8307FF22F6
:101AB800DB0E9A408907090E994000280BDA0007C7
:101AC800000F0838830808489B001818C369934317
:101AD8000B43C3617047830804489B001B181868B0
:101AE800904308431860704700ED00E000E400E010
:101AF80000207047024901480860704740787D011E
:101B0800741FFF1F02E008C8121F08C1002AFAD17B
:101B180070477047002001E001C1121F002AFBD165
:101B28007047000002488069002800D08047FEE71F
:101B3800581FFF1F10B50D4C207800F0ADF801219B
:101B4800207800F09BF80A48FFF756FF00F0A2F94A
:101B5800FF220021F5320846FFF754FFFFF758FF30
:101B68000120FFF75BFFFFF75FFF10BD581FFF1F46
:101B78001027000030B5C21F0125074C95400029E9
:101B880005D0002100F058F82068284301E02068BB
:101B9800A843206030BD000000380040054B0122FA
:101BA8008240D868002901D0104300E09043D860F3
:101BB800704700000038004010B5D4210348FFF7F3
:101BC800C8FE02490120086010BD0000781FFF1FF1
:101BD800054B0122801E82405869002901D010431C
:101BE80000E09043586170470038004030B50D461A
:101BF80004460021FFF7D2FF022C01D0032C03D1A9
:101C080001212046FFF7E4FF00212046FFF7B2FF3D
:101C1800074A0120A0405168012D06D08143516038
:101C2800044902200919087130BD0143516030BDD3
:101C380000800040781FFF1F70B5420083180D4ACE
:101C48009C18A5786478D65C641B0122641CA240A9
:101C5800521EAA40D243A940074B0A43132805D273
:101C6800B000C01881680A40826070BD586902409F
:101C78005A6170BDC41EFF1F00F00040054B0122D1
:101C880082401868002901D0104300E09043186092
:101C98007047000000800040034A00B50121121877
:101CA8001171FFF7A3FF00BD781FFF1F30B52A4849
:101CB80085B0C16B16229143C163C16B4022914329
:101CC800C1632648804700210420FFF7EFFE012169
:101CD8001420FFF7EBFE01211520FFF7E7FE012195
:101CE8001720FFF7E3FE012189021D48FFF7A2FE36
:101CF80014221C496846FFF713FE00246D46600055
:101D080041194978285CFFF797FF641CE4B20A2C54
:101D1800F5D31148803841690522D20391434161C6
:101D28004169416141690122920591434161002065
:101D380000F024F800F01CF80B480078FFF780FE4C
:101D48000A48407800F05AF8FFF780FE0120FFF7B4
:101D580083FE05B030BD000080F00040E1A2000025
:101D68004C20FF1F0C1FFF1F4A0AFF1F581FFF1F91
:101D7800014841694161704700F00040400900D0C6
:101D880000210448C269044B490419430A40C2614E
:101D98007047000000F00040FFFFC1FF10B5FFF7DB
:101DA80061FE002010BD000010B5FFF761FE08209D
:101DB800FFF722FE0F480121890742688A6082687E
:101DC80001231A434A610C490A6B0261496B41615C
:101DD80000210420FFF76AFE01211420FFF766FEA8
:101DE80001211520FFF762FE01211720FFF75EFE93
:101DF800002010BD581FFF1F80F0004010B5174C81
:101E0800012802D000280DD01FE060690D210907C4
:101E180088436061E069012149028843E061E06923
:101E2800E06112E000210A20FFF706FF00210B20E5
:101E3800FFF702FFE069E061E06940218843E06163
:101E480060690921C9068843606160696061A069A9
:101E5800032149048843A06110BD000000F0004040
:101E680008B5002000906846FFF75CFE10B50749EA
:101E780002200870064901204870FFF717FFFFF796
:101E88009BFEFFF757FE002010BD00004A0AFF1F07
:101E9800581FFF1F10B50220FFF7F0FD044902226A
:101EA800C8600021FFF7F0FD03490248086110BD32
:101EB800581FFF1F9D1AFF1F8003FF1F000201000C
:101EC8000504000807000B0A001716001D1C010274
:101ED80001010504010E0D0111100114130117165B
:101EE800011A19020201020B0A020E0D0211100258
:101EF8001413021716030504030807030B0A030E3D
:101F08000D0000000200030005000600070008009D
:101F180009000A000C000D00F91AFF1F010000005B
:101F28000004FF1F781FFF1F0C0000000C1BFF1F81
:101F3800781FFF1F0004FF1F000400009419FF1FF3
:101F4800781FFF1F781FFF1FD80800001C1BFF1FEA
:101F580003000000882108005902E0010000000089
:101F680000000000000000000000000040787D0133
:040000051FFF18F9C8
:00000001FF
