:020000041FFFDC
:101838005027FF1F0D19FF1F1519FF1F1719FF1F2D
:101848000000000000000000000000000000000090
:101858000000000000000000000000001919FF1F30
:1018680000000000000000001B19FF1F1D19FF1FCA
:101878001F19FF1F1F19FF1F1F19FF1F1F19FF1F08
:101888001F19FF1F1F19FF1F1F19FF1F1F19FF1FF8
:101898001F19FF1F1F19FF1F1F19FF1F1F19FF1FE8
:1018A8001F19FF1F1F19FF1F1F19FF1F1F19FF1FD8
:1018B8001F19FF1F1F19FF1F1F19FF1F1F19FF1FC8
:1018C8000000000000000000000000000000000010
:1018D8000000000000000000000000000000000000
:1018E8001F19FF1F000000001F19FF1F1F19FF1FEE
:1018F8000348854600F038F800480047D11CFF1F10
:101908005027FF1F0448804704480047FEE7FEE7CA
:10191800FEE7FEE7FEE7FEE7211AFF1FF918FF1FA3
:1019280003460B439B0703D009E008C9121F08C0F0
:10193800042AFAD203E00B780370401C491C521E9B
:10194800F9D27047D2B201E00270401C491EFBD2A6
:1019580070470022F6E710B513460A4604461946B2
:10196800FFF7F0FF204610BD064C0125064E05E0A6
:10197800E36807CC2B430C3C98471034B442F7D3A8
:10198800FFF7BAFF641EFF1F741EFF1F03B4014850
:10199800019001BD0189000003B40148019001BD17
:1019A800B54C010003B40148019001BDEDA500004C
:1019B80003B40148019001BDADAE000003B4014875
:1019C800019001BD456B010003B40148019001BDC0
:1019D800ED4A010003B40148019001BD85520100A0
:1019E80010B50324204600F0F5F80121204600F048
:1019F800E3F8A020FFF7CAFF0021204600F0DCF83A
:101A08000520C00300F020F802490148486010BDD5
:101A18005A5AA5A500F000400249014808607047DD
:101A280040787D01781EFF1F02E008C8121F08C118
:101A3800002AFAD170477047002001E001C1121F47
:101A4800002AFBD17047000070B5074C0546A66A0E
:101A58000120FFF79BFF7019E062606A2921C90322
:101A68000843606270BD000000F0004070B5044695
:101A78000325284600F0AEF8C32676010FE00121C1
:101A8800284600F099F8A020FFF780FF002128469B
:101A980000F092F8002C04D03046FFF777FF641E60
:101AA800EDD270BD10B50320FFF7E0FF10BD0000B8
:101AB80030B5C21F0125074C9540002905D00021EB
:101AC80000F058F82068284301E02068A843206007
:101AD80030BD000000380040054B01228240D86824
:101AE800002901D0104300E09043D86070470000FF
:101AF8000038004010B5D4210348FFF72AFF0249F7
:101B08000120086010BD00007C1EFF1F054B01224C
:101B1800801E82405869002901D0104300E090439C
:101B2800586170470038004030B50D460446002122
:101B3800FFF7D2FF022C01D0032C03D1012120464C
:101B4800FFF7E4FF00212046FFF7B2FF074A012014
:101B5800A0405168012D06D08143516004490220FC
:101B68000919087130BD0143516030BD0080004043
:101B78007C1EFF1F70B5420083180D4A9C18A5787B
:101B88006478D65C641B0122641CA240521EAA40E1
:101B9800084BA940132806D2B000C01883689343A5
:101BA8000B43836070BD586990430843586170BD0A
:101BB800081EFF1F00F00040054B012282401868F4
:101BC800002901D0104300E09043186070470000DE
:101BD80000800040034A00B5012112181171FFF777
:101BE800A3FF00BD7C1EFF1F30B585B01422194924
:101BF8006846FFF795FE00246D4660004119497854
:101C0800285CFFF7B7FF641CE4B20A2CF5D312482E
:101C18004169C20091430522120489184161416952
:101C28000122520611434161416903225205914341
:101C38000122520589184161C1691F22520491434A
:101C4800012252048918C16141695202114341615C
:101C580005B030BD501EFF1F00F0004030B5174CD6
:101C68004025012819D0002816D100210A20FFF7A5
:101C780081FF00210B20FFF77DFFE06903210902A6
:101C88000843E061E069A843E06160690B21400115
:101C9800400909074018606130BD606905214001AD
:101CA8004009C90640186061E069054908400549CE
:101CB8004018E061E0692843E06130BD00F0004071
:101CC8007F00FEFF80FD010070B5414A41490020B8
:101CD800414C424D03463E2877D014DC052874D089
:101CE80008DC01286ED002286FD003286DD00428A4
:101CF8001BD16AE03A2868D03B2866D03C2864D0DB
:101D08003D2812D161E0D5285FD008DC3F285CD09F
:101D180040285AD0642858D0D42806D155E0D6286F
:101D280053D0E42851D0E6284FD08600955186003C
:101D3800401C8B51FF28CEDD0846294A803082603E
:101D4800284A4A61192292018A613721C160264CCA
:101D580002202070254E0125357041022448FFF7E6
:101D68001BFEFFF741FF2078FFF71CFE3078FFF7D6
:101D780075FFFFF71DFE0120FFF720FEFFF7BAFEF3
:101D880062B604261B490868FF22120490434024C7
:101D9800220410430860184804600320FFF754FE2B
:101DA8001648C169A143C16114488030816A29433A
:101DB80081621248C0300660FFF706FEFFF70AFE90
:101DC800002070BD86009451B1E786009351AEE7BC
:101DD8000000FF1F0004FF1FE919FF1FAD1AFF1FB6
:101DE8005027FF1F80C3C9014A0AFF1F741EFF1F27
:101DF800501FFF1F04E400E000E100E000F0004095
:101E0800000201000504000807000B0A001716006D
:101E18001D1C010201010504010E0D011110011420
:101E280013011716011A19020201020B0A020E0DFC
:101E380002111002141302171603050403080703FE
:101E48000B0A030E0D000000020003000500060047
:101E58000700080009000A000C000D007C1EFF1F87
:101E68007C1EFF1FD4080000401AFF1F000000005E
:041E780040787D0130
:040000051FFF18F9C8
:00000001FF
