:020000041FFFDC
:10183800C022FF1F0D19FF1F1519FF1F1719FF1FC2
:101848000000000000000000000000000000000090
:101858000000000000000000000000001919FF1F30
:1018680000000000000000001B19FF1F1D19FF1FCA
:101878001F19FF1F1F19FF1F1F19FF1F1F19FF1F08
:101888001F19FF1F1F19FF1F1F19FF1F1F19FF1FF8
:101898001F19FF1F1F19FF1F1F19FF1F1F19FF1FE8
:1018A8001F19FF1F1F19FF1F1F19FF1F1F19FF1FD8
:1018B8001F19FF1F1F19FF1F1F19FF1F1F19FF1FC8
:1018C8000000000000000000000000000000000010
:1018D8000000000000000000000000000000000000
:1018E8001F19FF1F000000001F19FF1F1F19FF1FEE
:1018F8000348854600F038F800480047B51CFF1F2C
:10190800C022FF1F0448804704480047FEE7FEE75F
:10191800FEE7FEE7FEE7FEE7C519FF1FF918FF1F00
:1019280003460B439B0703D009E008C9121F08C0F0
:10193800042AFAD203E00B780370401C491C521E9B
:10194800F9D27047D2B201E00270401C491EFBD2A6
:1019580070470022F6E710B513460A4604461946B2
:10196800FFF7F0FF204610BD064C0125064E05E0A6
:10197800E36807CC2B430C3C98471034B442F7D3A8
:10198800FFF7BAFFD01DFF1FE01DFF1F03B401487A
:10199800019001BD0189000003B40148019001BD17
:1019A800EDA5000003B40148019001BDADAE0000F3
:1019B80003B40148019001BD456B0100024901488B
:1019C8000860704740787D01E41DFF1F02E008C8E9
:1019D800121F08C1002AFAD170477047002001E0A1
:1019E80001C1121F002AFBD17047000003252846B9
:1019F80000F0F2F80A4E0024641CE00F00194008B9
:101A08004000241AE1B2284600F0D8F8002C03D090
:101A1800A020FFF7BBFFEFE7304600F039F8EBE70F
:101A2800E03D000070B5074C0546A66A0120FFF7A7
:101A3800ADFF7019E062606A2921C903084360623A
:101A480070BD000000F0004070B50446032528462C
:101A580000F0C2F8C32676010DE00121284600F007
:101A6800ADF8A020FFF792FF0021284600F0A6F865
:101A78003046FFF78BFF641EEFD27D20C001FFF7D1
:101A880085FF70BD10B50320FFF7DEFF10BD000015
:101A980010B50749CA6940239A43CA61FFF7C2FFD4
:101AA80003488030816A01221143816230BF10BD32
:101AB80000F0004030B5C21F0125074C95400029B1
:101AC80005D0002100F058F82068284301E020687C
:101AD800A843206030BD000000380040054B0122BB
:101AE8008240D868002901D0104300E09043D860B4
:101AF800704700000038004010B5D4210348FFF7B4
:101B080028FF02490120086010BD0000E81DFF1FE2
:101B1800054B0122801E82405869002901D01043DC
:101B280000E09043586170470038004030B50D46DA
:101B380004460021FFF7D2FF022C01D0032C03D169
:101B480001212046FFF7E4FF00212046FFF7B2FFFE
:101B5800074A0120A0405168012D06D081435160F9
:101B6800044902200919087130BD0143516030BD94
:101B780000800040E81DFF1F70B5420083180D4A21
:101B88009C18A5786478D65C641B0122641CA2406A
:101B9800521EAA40D243A940074B0A43132805D234
:101BA800B000C01881680A40826070BD5869024060
:101BB8005A6170BD741DFF1F00F00040054B0122E3
:101BC80082401868002901D0104300E09043186053
:101BD8007047000000800040034A00B50121121838
:101BE8001171FFF7A3FF00BDE81DFF1F30B585B0D9
:101BF800142213496846FFF793FE00246D466000DF
:101C080041194978285CFFF7B7FF641CE4B20A2C35
:101C1800F5D30C4841690522D203914341614169DA
:101C2800416141690122920591434161C1691F22C5
:101C380052049143C1614169416105B030BD000062
:101C4800BC1DFF1F00F0004010B5174C012802D042
:101C580000280DD01FE060690D21090788436061E5
:101C6800E069012149028843E061E069E06112E02E
:101C780000210A20FFF780FF00210B20FFF77CFFDF
:101C8800E069E061E06940218843E0616069092119
:101C9800C9068843606160696061A06903214904DD
:101CA8008843A06110BD000000F00040264A274983
:101CB8000020274C0346642842D006DC3D283FD04C
:101CC8003F283DD0402806D13AE0D42838D0D5283E
:101CD80036D0E62834D0850054518500401C4B513D
:101CE800FF28E8DD08461B4A803082601A4A4A61AC
:101CF800192292018A613721C160184C0220207094
:101D0800174D01202870FFF771FF2078FFF744FE78
:101D18002878FFF799FFFFF745FE0120FFF748FEF7
:101D2800FFF7EAFE62B60F490868FF2212049043E3
:101D380040221304184308600B480260FFF756FE60
:101D480085005351C9E700000000FF1F0004FF1F72
:101D58008D1AFF1FC022FF1F80C3C9014A0AFF1F37
:101D6800E01DFF1F04E400E000E100E000020100C4
:101D78000504000807000B0A001716001D1C0102C5
:101D880001010504010E0D011110011413011716AC
:101D9800011A19020201020B0A020E0D02111002A9
:101DA8001413021716030504030807030B0A030E8E
:101DB8000D000000020003000500060007000800EF
:101DC80009000A000C000D00E81DFF1FE81DFF1F99
:101DD800D8040000E419FF1F0000000040787D01CE
:040000051FFF18F9C8
:00000001FF
