:020000041FFFDC
:10183800B81FFF1F0D19FF1F1519FF1F1719FF1FCD
:101848000000000000000000000000000000000090
:101858000000000000000000000000001919FF1F30
:1018680000000000000000001B19FF1F1D19FF1FCA
:101878001F19FF1F1F19FF1F1F19FF1F1F19FF1F08
:101888001F19FF1F1F19FF1F1F19FF1F1F19FF1FF8
:101898001F19FF1F1F19FF1F1F19FF1F1F19FF1FE8
:1018A8001F19FF1F1F19FF1F1F19FF1F1F19FF1FD8
:1018B8001F19FF1F1F19FF1F1F19FF1F1F19FF1FC8
:1018C8000000000000000000000000000000000010
:1018D8000000000000000000000000000000000000
:1018E8001F19FF1F000000001F19FF1F1F19FF1FEE
:1018F8000348854600F026F800480047191BFF1FDB
:10190800B81FFF1F0448804704480047FEE7FEE76A
:10191800FEE7FEE7FEE7FEE78919FF1FF918FF1F3C
:1019280003460B439B0703D009E008C9121F08C0F0
:10193800042AFAD203E00B780370401C491C521E9B
:10194800F9D27047064C0125064E05E0E36807CC3E
:101958002B430C3C98471034B442F7D3FFF7CCFF25
:10196800A01BFF1FB01BFF1F03B40148019001BD5E
:10197800EDA5000003B40148019001BDADAE000023
:10198800024901480860704740787D01B41BFF1F79
:1019980002E008C8121F08C1002AFAD17047704730
:1019A800002001E001C1121F002AFBD1704700008E
:1019B80070B5420083180D4A9C18A5786478D65CE7
:1019C800641B0122641CA240521EAA40084BA94075
:1019D800132806D2B000C018836893430B43836072
:1019E80070BD586990430843586170BD441BFF1F80
:1019F80000F0004030B585B0142216496846FFF75C
:101A08008FFF00246D46600041194978285CFFF774
:101A1800CFFF641CE4B20A2CF5D30F484169C20019
:101A28009143052212048918416141690122520635
:101A38001143416141690322520591430122520534
:101A480089184161002000F013F800F007F805B08C
:101A580030BD00008C1BFF1F00F0004003484169A7
:101A680001229206114341617047000000F00040D6
:101A7800400900D00021044AD0691F235B04984321
:101A880049040843D061704700F0004030B5402554
:101A98001C4C012802D0002811D027E060690521DC
:101AA80040014009C90640186061E06916490840CC
:101AB80016494018E061E0692843E06116E000211A
:101AC8000A20FFF775FF00210B20FFF771FFE0697F
:101AD800032109020843E061E069A843E061606905
:101AE8000B21400140090907401860616069012124
:101AF800090708436061A069032149048843A0617C
:101B080030BD000000F000407F00FEFF80FD0100B6
:101B1800084C02202070084D01202870FFF76AFF4A
:101B28002078FFF721FF2878FFF7B0FFFFF722FFA3
:101B3800FEE700004A0AFF1FB01BFF1F000201005A
:101B48000504000807000B0A001716001D1C0102F7
:101B580001010504010E0D011110011413011716DE
:101B6800011A19020201020B0A020E0D02111002DB
:101B78001413021716030504030807030B0A030EC0
:101B88000D00000002000300050006000700080021
:101B980009000A000C000D00B81BFF1FB81BFF1F2F
:101BA80000040000A819FF1F0000000040787D0114
:040000051FFF18F9C8
:00000001FF
