:020000041FFFDC
:1018380000A0FF1F191AFF1F000000000000000091
:101848000000000000000000000000000000000090
:101858000000000000000000000000000000000080
:101868000000000000000000000000000000000070
:101878000000000000000000000000000000000060
:101888000000000000000000000000000000000050
:101898000000000000000000000000000000000040
:1018A8000000000000000000000000000000000030
:1018B8000000000000000000000000000000000020
:1018C8000000000000000000000000000000000010
:1018D8000000000000000000000000000000000000
:1018E80000000000000000000000000000000000F0
:1018F800054B0648033310B51B1A062B03D9044BB6
:10190800002B00D0984710BD4884FF1F4884FF1F54
:10191800000000000648074910B5091A8910CB0FC6
:101928005918491003D0044B002B00D0984710BD1C
:101938004884FF1F4884FF1F0000000010B5074CB3
:101948002378002B09D1FFF7D3FF054B002B02D0DA
:10195800044800E000BF0123237010BD4884FF1F26
:1019680000000000D822FF1F094B10B5002B03D040
:101978000849094800E000BF08480368002B02D165
:10198800FFF7C8FF10BD064B002BF9D09847F7E7C3
:10199800000000004C84FF1FD822FF1F4484FF1F53
:1019A80000000000144B002B00D1124B9D46402232
:1019B80092029A1A924600218B460F461148124A03
:1019C800121A00F0CFFA0D4B002B00D098470C4BA1
:1019D800002B00D098470020002104000D000B4880
:1019E80000F028FA00F058FA2000290000F0EEF87C
:1019F80000F028FA0000080000A0FF1F0000000007
:101A0800000000004884FF1F3C89FF1F6D1EFF1F58
:101A18000E4B0F4A10B50F481A600F4B984207D269
:101A2800C243D2189208013292000C4900F058FAC9
:101A38000B480C4B984207D2C243D2189208013285
:101A48009200002100F08EFAFFF7ACFF0080FF1F24
:101A580040787D010080FF1F4884FF1FE422FF1F9C
:101A68004884FF1F3C89FF1F012270B50825022109
:101A7800144B154CDA71154BA020DA68AA43DA60CA
:101A88005A690A435A611A681A6063682B4363608B
:101A980023682B43236000F0AFFB23680120AB438E
:101AA80023600B4CA56A00F0A7FBA0239B029C4671
:101AB800A4236544E562626A5B0313436362054BD2
:101AC800636070BD6484FF1F0080004000380040E0
:101AD80000F000405A5AA5A5012270B50825022138
:101AE8000826154B154CDA71154BA020DA68AA4365
:101AF800DA605A690A435A611A681A6063682B43A4
:101B0800636023682B43236000F076FB2368AB43B4
:101B18002360063DC320400100F06EFB2368A0202F
:101B28003343236000F068FB2368013DB34323601F
:101B3800002DEFD170BDC0466484FF1F00800040B7
:101B480000380040FEE7C04601281DD000281AD101
:101B5800174B18491A680A401A601A6816490A4049
:101B68001A60C022154B920019680A4340211A6076
:101B78001A688A431A60B022114912060B685B0181
:101B88005B0913430B607047A0220D4992050B684F
:101B98005B015B0913430B60084B0A491A68114043
:101BA800094A0A4340211A601A680A431A60EAE798
:101BB8000CF00040FFFFE7FFFFFF3FFF1CF0004075
:101BC80014F000407F00FEFF80FD0100F0B557468D
:101BD8004E464546DE46E0B580257C4B87B07C48BE
:101BE8007C49012200246D009C467B4F7B4E0AE015
:101BF8003A2B00D3C9E0012B00D0C0E03E600C6056
:101C0800013204310430531E402BF1D9D62B00D9B0
:101C1800BDE0D42B00D3B8E0642B00D1B5E0634617
:101C280003600C60AA42EBD16D4A6E4B80211A60AA
:101C38006D4A6E4B6E481A60C8226E4BD2001A600D
:101C480037226D4BC9001A606C4B6D4F99460223C1
:101C58004A4613706B4B984601234246137000F0B6
:101C6800EBFA01AA1100684B684E31CB31C111CB98
:101C780011C106AB9B4601239C4615785078690034
:101C8800491974186378A478122D00D886E065463F
:101C98001B1B01339D402B00013BA340A04039682A
:101CA80002329943084338605A45E6D1544B5849A3
:101CB8001A68584E1140A022D2020A431A608022A4
:101CC800196892040A431A601A6853490125114099
:101CD800802292030A431A603268504911408022D8
:101CE80092020A43326080221968D2040A431A60B9
:101CF8004B461878C0B200F08FFA43461878C0B245
:101D0800FFF722FF00F0A8FA012000F07DFA444C0A
:101D1800D4220021200000F025F9256062B6C120F8
:101D2800404B80001A58404911408022D2030A4390
:101D38001A50402290461A603C4C0120A76A00F0D5
:101D48005BFAA4230337E762626A5B0313434246E4
:101D580063623368934333606832A3582B43A350BC
:101D6800C023A43AE25000F05FFA00F06DFA0020B8
:101D780007B03CBC90469946A246AB46F0BD002B46
:101D880000D14CE7052B00D949E7046049E7E42B6B
:101D9800FBD0E62B00D042E7046042E7244D715C9B
:101DA800AA46890051440D681B1BAA4665460133A3
:101DB8009D402B00013BA3405546A0409D4328432E
:101DC80002320860934500D057E76FE7E11AFF1F1A
:101DD8000000FF1F0004FF1F0400FF1F711AFF1FF0
:101DE8008422FF1F8804FF1F80C3C9011404FF1F3A
:101DF8003C85FF1F1804FF1F8C04FF1F4A0AFF1FA2
:101E080014F000403885FF1F7022FF1F8822FF1F33
:101E1800FF7FF8FF1CF00040FFFF9FFFFFFFC1FF9F
:101E28006484FF1F00E100E0FFFF00FF00F00040B6
:101E380008F0004010B5010000230022002000F047
:101E4800DBF810BD10B50021040000F03FF9044B89
:101E58001868C36B002B00D098472000FFF772FE6C
:101E6800D022FF1F70B5094B094CE41AA41009D001
:101E7800084AA518AD00ED182B68013C9847043DA9
:101E8800002CF9D100F0B0F970BDC0464084FF1FA6
:101E98004484FF1FFFFFFF3F70B50D4E0D4D00241A
:101EA800AD1BAD1005D0A300F35801349847A542E7
:101EB800F9D100F093F9084E084D0024AD1BAD1080
:101EC80005D0A300F35801349847A542F9D170BD55
:101ED8003884FF1F3884FF1F3884FF1F4084FF1F8A
:101EE800F0B505000F2A2FD90B0003439B0734D107
:101EF80016000C000300103E350901352D01451967
:101F080027681F6067685F60A7689F60E76810348C
:101F1800DF6010339D42F3D10F239E43103685199D
:101F280089191340032B1AD91E1F0023B408013442
:101F3800A400CF58EF500433A342FAD10324A64398
:101F4800331D2240C918ED18002A05D00023CC5CA7
:101F5800EC5401339342FAD1F0BD0500F6E71A00BC
:101F6800F2E7C046F0B5830743D0541E002A3FD09D
:101F7800CEB20200032502E01A00013C38D3531CFC
:101F880016702B42F8D1032C2AD9FF220A401502D9
:101F980015432A0415430F2C14D927001A00103FA3
:101FA8003E09013636019E19156055609560D56069
:101FB80010329642F8D10F2297431037DB1914409C
:101FC800032C0DD91A00271FBE080136B6009E192A
:101FD80020C2B242FCD1032297430437DB191440D4
:101FE800002C05D0C9B21C19197001339C42FBD1D1
:101FF800F0BD14000300C6E7F8B5DE469B46314B3A
:1020080045461C68A4234E4657465B00E0B50500CC
:10201800E0580E00904600284BD043681F2B0DDC7B
:102028005C1C002D21D102339B0044601E5000200F
:102038003CBC90469946A246AB46F8BD224B002BC5
:102048003CD0C820400000E000BF002836D0A422C1
:1020580000235200A15843600160A05040328350D1
:10206800043283500124002DDDD09A00914681442A
:10207800424688214F467A50C422520090468044F6
:1020880042468739994012688A460A43944642462E
:1020980061461160842249465F4652008F50022DE6
:1020A800C1D1020055468D32FF3211680D431560CB
:1020B800B9E720004D30FF30E050AEE70120404244
:1020C800B6E7C046D022FF1F00000000F0B5574613
:1020D800DE464E464546E0B50F00384B85B01B68D6
:1020E800019002934933FF330393A422029B5200C9
:1020F8009E58002E4ED0039B9946C4235B009846F9
:1021080004339A467468B044A5007519B244013C7A
:1021180008D52DE06B1DFF331B689F4204D0043D9A
:10212800013C25D3002FF5D173686A68013BA342AF
:1021380039D000236B60002AF1D0736841469B4672
:102148000123A340096819422BD051460968194256
:102158002BD12B00843319680198904773685B452D
:10216800C3D14B461B68B342BFD1043D013CD9D211
:10217800134B002B0ED07368002B1BD13368002B38
:1021880008D04A463000136000E000BF4B461E6886
:10219800002EB2D105B03CBC90469946A246AB464B
:1021A800F0BD9047DAE77460C5E72B008433186800
:1021B8009047D3E7B1463668EAE7C046D022FF1F0A
:1021C80000000000034B10B5002B02D00248FFF7B7
:1021D80031FE10BD000000006D1EFF1FF8B5C0469F
:1021E800F8BC08BC9E467047F8B5C046F8BC08BCA9
:1021F8009E4670470000000001B40248844601BCB6
:10220800604700BF0189000001B40248844601BC50
:10221800604700BF456B010001B40248844601BC19
:10222800604700BFEDA5000001B40248844601BC28
:10223800604700BFED4A010001B40248844601BC72
:10224800604700BFB54C010001B40248844601BC98
:10225800604700BF8552010001B40248844601BCB2
:10226800604700BFADAE0000020003000500060095
:102278000700080009000A000C000D0000A0FF1F5D
:10228800000201000504000807000B0A00171600E9
:102298001D1C010201010504010E0D01111001149C
:1022A80013011716011A19020201020B0A020E0D78
:1022B800021110021413021716030504030807037A
:1022C8000B0A030E0D0000001080FF1F43000000E2
:0422D8000000000002
:0822DC00D0F6FF7F01000000B5
:1022E40040787D01000000001080FF1F0000000006
:1022F40000000000FC82FF1F6483FF1FCC83FF1FCC
:1023040000000000000000000000000000000000C9
:1023140000000000000000000000000000000000B9
:1023240000000000D422FF1F000000000000000095
:102334000000000000000000000000000000000099
:102344000000000000000000000000000000000089
:102354000000000000000000000000000000000079
:102364000000000000000000000000000000000069
:102374000000000000000000000000000000000059
:102384000000000000000000000000000000000049
:102394000000000000000000010000000000000038
:1023A4000E33CDAB34126DE6ECDE05000B000000FD
:1023B4000000000000000000000000000000000019
:1023C4000000000000000000000000000000000009
:1023D40000000000000000000000000000000000F9
:1023E40000000000000000000000000000000000E9
:102714000000000000000000CD21FF1F7119FF1F01
:082724004519FF1F0000000031
:040000051FFF1A19A6
:00000001FF
