:020000041FFFDC
:108000000080FF1F4987FF1FA587FF1FA587FF1F50
:108010000000000000000000000000000000000060
:10802000000000000000000000000000A587FF1F06
:108030000000000000000000A587FF1FA587FF1FAC
:10804000A587FF1FA587FF1FA587FF1FA587FF1F08
:10805000A587FF1FA587FF1FA587FF1FA587FF1FF8
:10806000A587FF1FA587FF1FA587FF1FA587FF1FE8
:10807000A587FF1FA587FF1FA587FF1FA587FF1FD8
:10808000A587FF1FA587FF1FA587FF1FA587FF1FC8
:10809000A587FF1FA587FF1FA587FF1F0000000002
:1080A00000000000000000000000000000000000D0
:1080B00000000000000000000000000000000000C0
:1080C000054B0648033310B51B1A062B03D9044B86
:1080D000002B00D0984710BD4864FF1F4864FF1F65
:1080E000000000000648074910B5091A8910CB0F97
:1080F0005918491003D0044B002B00D0984710BDED
:108100004864FF1F4864FF1F0000000010B5074CC3
:108110002378002B09D1FFF7D3FF054B002B02D0AA
:10812000044800E000BF0123237010BD4864FF1F16
:10813000000000008C8BFF1F094B10B5002B03D0F3
:108140000849094800E000BF08480368002B02D135
:10815000FFF7C8FF10BD064B002BF9D09847F7E793
:10816000000000004C64FF1F8C8BFF1F4464FF1F46
:1081700000000000144B002B00D1124B9D46402202
:1081800092029A1A924600218B460F461148124AD3
:10819000121A00F071FB0D4B002B00D098470C4BCE
:1081A000002B00D098470020002104000D000B4850
:1081B00000F00CFB00F03CFB2000290000F0AEFAC0
:1081C00000F00CFB000008000080FF1F0000000012
:1081D000000000004864FF1F3C69FF1FFD87FF1F70
:1081E00080B584B000AF78607B681F22934301D0D4
:1081F0000023FB60064B064A1268F96849040548EB
:1082000001430A401A60C046BD4604B080BDC04666
:108210001CF00040FFFFC1FF80B500AF034B034AD5
:1082200012681A60C046BD4680BDC04614F00040CA
:1082300090B585B000AF0200FB1D1A70BB1D0A1C73
:108240001A70FB1D1A780F23F918384813005B00C9
:108250009B181B5C0B70FB1D1A780E23F918334812
:1082600013005B009B18C31801331B780B70FB1DB8
:108270001A780D23F9182D4813005B009B18C318BA
:1082800002331B780B70FB1D1B78122B2BD80F238E
:10829000FB181B789B00264A944663440F22BA18A9
:1082A0001278920022498C46624412680E21791895
:1082B00008780D2179180978411A01310120884088
:1082C0000100481E0D217918097888400100C84333
:1082D000B91D0C780D21791809788C4021000143D3
:1082E0000A401A601EE0134B124A12680E217918D8
:1082F00008780D2179180978411A01310120884048
:108300000100481E0D217918097888400100C843F2
:10831000B91D0C780D21791809788C402100014392
:108320000A401A60C046BD4605B090BD288BFF1FAD
:1083300008F0004014F0004090B587B000AF3B005B
:108340001F4A13CA13C303CA03C31723FB1800220F
:108350001A7017E01723FB181A783B005200D05C04
:108360001723FB181B783A005B00D31801331B78E6
:108370001900FFF75DFF1723FB181A781723FB1866
:1083800001321A701723FB181B78092BE2D90D4B09
:108390000C4A12680C490A401A600A4B094A1268D2
:1083A0001A60084B074A126808490A401A60002000
:1083B000FFF716FFFFF730FFC046BD4607B090BD80
:1083C000708BFF1F14F00040FF7FFDFFFFFFBFFF1A
:1083D00080B582B000AF0200FB1D1A70FB1D1B7838
:1083E000012B10D11D4B1D4A12681D490A401A600D
:1083F0001C4B1C4A12681C490A401A60194B194A46
:1084000012681A601BE0FB1D1B78002B17D100219E
:108410000A20FFF70DFF00210B20FFF709FF114B8A
:10842000104A12681A600F4B0E4A126840218A43A4
:108430001A600A4B094A12680C490A401A60074B35
:10844000064A12681A600A4B094A126809490A402A
:108450001A60C046BD4602B080BDC04614F0004060
:10846000FFFFFF2F1CF00040FFFDFFFFFFFFFFB7E6
:1084700018F00040FFFFF9FF80B500AFFFF75CFF89
:10848000084B1B78DBB2180000F03EFB064B1B7854
:10849000DBB21800FFF79CFF00F03EFBC046BD4674
:1084A00080BDC0464A0AFF1F3865FF1F80B500AF78
:1084B000054BD4220021180000F0DEF9024B012206
:1084C0001A60C046BD4680BD6464FF1F80B582B09F
:1084D00000AF0200FB1D1A70BB1D0A1C1A70BB1DE9
:1084E0001B78002B0AD00D4B0C4AD168FA1D12786C
:1084F0000120904002000A43DA600AE0074B074A75
:10850000D268F91D0978012088400100C9430A405A
:10851000DA60C046BD4602B080BDC04600380040AB
:1085200080B582B000AF0200FB1D1A70BB1D0A1C93
:108530001A70BB1D1B78002B0BD00E4B0D4A5169D6
:10854000FA1D1278023A0120904002000A435A6153
:108550000BE0084B074A5269F91D097802390120DE
:1085600088400100C9430A405A61C046BD4602B076
:1085700080BDC0460038004080B582B000AF020028
:10858000FB1D1A70BB1D0A1C1A70BB1D1B78002B2B
:1085900011D0FB1D1B7800211800FFF749FE0E4B80
:1085A0000D4A1168FA1D1278073A01209040020026
:1085B0000A431A600BE0084B074A1268F91D097854
:1085C0000739012088400100C9430A401A60C046AB
:1085D000BD4602B080BDC0460038004080B582B0C4
:1085E00000AF0200FB1D1A70BB1D0A1C1A70FB1D98
:1085F0001B7800211800FFF769FFFB1D1B78022B79
:1086000003D0FB1D1B78032B05D1FB1D1B7801211B
:108610001800FFF785FFFB1D1B7800211800FFF7EE
:10862000ABFFBB1D1B78012B0AD1104B0F4A5168C1
:10863000FA1D12780120904002000A435A6010E0AF
:108640000A4B0A4A5268F91D097801208840010046
:10865000C9430A405A60FB1D1B78054AD318022201
:108660001A71C046BD4602B080BDC04600800040C1
:108670006464FF1F80B582B000AF0200FB1D1A705A
:10868000FB1D1B78064AD31801221A71FB1D1B78AB
:1086900001211800FFF7A2FFC046BD4602B080BD11
:1086A0006464FF1F80B582B000AF0200FB1D1A702A
:1086B000BB1D0A1C1A70BB1D1B78002B0AD00D4B6A
:1086C0000C4A1168FA1D12780120904002000A43FA
:1086D0001A600AE0074B074A1268F91D0978012061
:1086E00088400100C9430A401A60C046BD4602B036
:1086F00080BDC0460080004080B582B000AFFB1D49
:1087000003221A70FB1D1B781800FFF7B3FFFB1D37
:108710001B7801211800FFF7C5FFFEE780B500AF09
:10872000074B02221A70074B01221A70FFF7A4FEB2
:10873000FFF7BCFEFFF7E0FF00231800BD4680BD39
:108740004A0AFF1F3865FF1F80B582B000AF00F0F6
:1087500031F80F4B7B600F4B3B6007E03B681A1D05
:108760003A607A68111D796012681A603A680A4B9B
:108770009A42F3D3094B3B6004E03B681A1D3A6010
:1087800000221A603A68064B9A42F6D3FFF7F2FCD1
:10879000988BFF1F0060FF1F4864FF1F4864FF1F86
:1087A0003C69FF1F80B500AFFEE780B582B000AF27
:1087B0007860FEE780B500AF024B034A1A60C046FE
:1087C000BD4680BD0060FF1F40787D0110B50100EF
:1087D00000230022002000F099F810BD10B5002100
:1087E000040000F0FDF8044B1868C36B002B00D0A8
:1087F00098472000FFF7D9FF848BFF1F70B5094B06
:10880000094CE41AA41009D0084AA518AD00ED18C7
:108810002B68013C9847043D002CF9D100F06EF91B
:1088200070BDC0464064FF1F4464FF1FFFFFFF3F51
:1088300070B50D4E0D4D0024AD1BAD1005D0A3003D
:10884000F35801349847A542F9D100F051F9084E88
:10885000084D0024AD1BAD1005D0A300F358013422
:108860009847A542F9D170BD3864FF1F3864FF1FD7
:108870003864FF1F4064FF1FF0B5830743D0541EC8
:10888000002A3FD0CEB20200032502E01A00013CCC
:1088900038D3531C16702B42F8D1032C2AD9FF224F
:1088A0000A40150215432A0415430F2C14D927003A
:1088B0001A00103F3E09013636019E1915605560B9
:1088C0009560D56010329642F8D10F229743103749
:1088D000DB191440032C0DD91A00271FBE080136DE
:1088E000B6009E1920C2B242FCD10322974304373E
:1088F000DB191440002C05D0C9B21C1919700133C2
:108900009C42FBD1F0BD14000300C6E7F8B5DE467B
:108910009B46314B45461C68A4234E4657465B0098
:10892000E0B50500E0580E00904600284BD04368A3
:108930001F2B0DDC5C1C002D21D102339B004460F9
:108940001E5000203CBC90469946A246AB46F8BD5E
:10895000224B002B3CD0C820400000E000BF002884
:1089600036D0A42200235200A15843600160A050D9
:1089700040328350043283500124002DDDD09A0010
:1089800091468144424688214F467A50C422520083
:108990009046804442468739994012688A460A4385
:1089A0009446424661461160842249465F46520021
:1089B0008F50022DC1D1020055468D32FF32116811
:1089C0000D431560B9E720004D30FF30E050AEE7B1
:1089D00001204042B6E7C046848BFF1F0000000024
:1089E000F0B55746DE464E464546E0B50F00384BDB
:1089F00085B01B68019002934933FF330393A4228F
:108A0000029B52009E58002E4ED0039B9946C423D1
:108A10005B00984604339A467468B044A500751903
:108A2000B244013C08D52DE06B1DFF331B689F420B
:108A300004D0043D013C25D3002FF5D173686A684A
:108A4000013BA34239D000236B60002AF1D0736848
:108A500041469B460123A340096819422BD0514649
:108A6000096819422BD12B0084331968019890476B
:108A700073685B45C3D14B461B68B342BFD1043D0D
:108A8000013CD9D2134B002B0ED07368002B1BD1A5
:108A90003368002B08D04A463000136000E000BF66
:108AA0004B461E68002EB2D105B03CBC904699469C
:108AB000A246AB46F0BD9047DAE77460C5E72B00ED
:108AC000843318689047D3E7B1463668EAE7C04672
:108AD000848BFF1F00000000034B10B5002B02D059
:108AE0000248FFF773FE10BD00000000FD87FF1F66
:108AF000F8B5C046F8BC08BC9E467047F8B5C046FD
:108B0000F8BC08BC9E46704701B40248844601BCCC
:108B1000604700BFEDA5000001B40248844601BCD7
:108B2000604700BFADAE0000000201000504000870
:108B300007000B0A001716001D1C010201010504A5
:108B4000010E0D011110011413011716011A19025B
:108B50000201020B0A020E0D021110021413021779
:108B600016030504030807030B0A030E0D0000009B
:108B700002000300050006000700080009000A00C3
:108B80000C000D001060FF1F4300000000000000FB
:088B9000E4F5FF7F0100000085
:108B980040787D01000000001060FF1F0000000009
:108BA80000000000FC62FF1F6463FF1FCC63FF1F0F
:108BB80000000000000000000000000000000000AD
:108BC800000000000000000000000000000000009D
:108BD80000000000888BFF1F00000000000000005C
:108BE800000000000000000000000000000000007D
:108BF800000000000000000000000000000000006D
:108C0800000000000000000000000000000000005C
:108C1800000000000000000000000000000000004C
:108C2800000000000000000000000000000000003C
:108C3800000000000000000000000000000000002C
:108C4800000000000000000001000000000000001B
:108C58000E33CDAB34126DE6ECDE05000B000000E0
:108C680000000000000000000000000000000000FC
:108C780000000000000000000000000000000000EC
:108C880000000000000000000000000000000000DC
:108C980000000000000000000000000000000000CC
:108FC8000000000000000000D98AFF1F3981FF1F40
:088FD8000D81FF1F00000000E5
:040000051FFF874909
:00000001FF
