:020000041FFFDC
:1018380000A0FF1F791DFF1F751DFF1F751DFF1FCE
:101848000000000000000000000000000000000090
:10185800000000000000000000000000751DFF1FD0
:101868000000000000000000751DFF1F751DFF1F10
:10187800751DFF1F751DFF1F751DFF1F751DFF1FA0
:10188800751DFF1F751DFF1F751DFF1F751DFF1F90
:10189800751DFF1F751DFF1F751DFF1F751DFF1F80
:1018A800751DFF1F751DFF1F751DFF1F751DFF1F70
:1018B800751DFF1F751DFF1F751DFF1F751DFF1F60
:1018C800751DFF1F751DFF1F751DFF1F0000000000
:1018D8000000000000000000000000000000000000
:1018E80000000000000000000000000000000000F0
:1018F800054B0648033310B51B1A062B03D9044BB6
:10190800002B00D0984710BD4884FF1F4884FF1F54
:10191800000000000648074910B5091A8910CB0FC6
:101928005918491003D0044B002B00D0984710BD1C
:101938004884FF1F4884FF1F0000000010B5074CB3
:101948002378002B09D1FFF7D3FF054B002B02D0DA
:10195800044800E000BF0123237010BD4884FF1F26
:10196800000000004422FF1F094B10B5002B03D0D4
:101978000849094800E000BF08480368002B02D165
:10198800FFF7C8FF10BD064B002BF9D09847F7E7C3
:10199800000000004C84FF1F4422FF1F4484FF1FE7
:1019A80000000000144B002B00D1124B9D46402232
:1019B80092029A1A924600218B460F461148124A03
:1019C800121A00F09FFA0D4B002B00D098470C4BD1
:1019D800002B00D098470020002104000D000B4880
:1019E80000F0F8F900F028FA2000290000F0D6F8F5
:1019F80000F0F8F90000080000A0FF1F0000000038
:101A0800000000004884FF1F3C89FF1F0D1EFF1FB8
:101A180001220821022070B503250826114B124C1B
:101A2800DA71124BDA688A43DA605A6902435A61FA
:101A38001A681A6063680B4363602368A020334305
:101A4800236000F0B9FBC32023684001B34323603F
:101A5800013D00F0B1FB002DEFD1FA20800100F02C
:101A6800ABFB70BD6484FF1F00800040003800405D
:101A780001281FD0002814D1154B16491A680A40AE
:101A88001A601A6814490A4040211A60134B1A68F0
:101A98001A601A688A431A60114A124913680B407F
:101AA80013600F4B10491A681A60104A13680B40EC
:101AB800136070470A4A0E4913680B401360074BBE
:101AC8000C491A680A401A601A681A60E9E7C046A1
:101AD8000CF00040FFFFE7FFFFFF3FFF1CF0004056
:101AE80014F00040FFFFFFB7FFFFF9FF18F00040B8
:101AF800FFFFFF2FFFFDFFFFF0B50122C6460821BB
:101B080002200024012608271C4B00B5DA711C4B63
:101B18001C4DDA688A43DA605A6902435A611A68C6
:101B28001A606B680B436B60013434402B681ED11C
:101B38004021154ABB432B60136801208B43136077
:101B4800124B1B68984600F037FB114A114B424470
:101B5800DA62A422596A52030A435A620E4A136887
:101B68003343136030BF013434402B68E0D03B432B
:101B78002B60A02000F020FBD6E7C0466484FF1F3E
:101B880000380040008000401CF0004028F0004071
:101B9800E03D000000F00040A8F00040F0B55746D6
:101BA8004E464546DE46E0B5802587B05848594937
:101BB800012200246D00584F584E0CE0D42B00D25F
:101BC8008CE0D52B11D9E62B00D087E034600C606F
:101BD800013204310430531E642B06D0EED83D2B5D
:101BE80003D07BD33F3B012B78D804600C60AA421A
:101BF800EED14B4A4B4B01A91A604B4A4B4B4C4E0A
:101C08001A60C8224B4BD2001A6037224A4B4B4FFE
:101C18001A604B4B994602234A461370494B9A4621
:101C28000123524613700A00474B31CB31C211CB06
:101C380011C206AB984601239C460C78487862008E
:101C48001219B5186B78AD78122C49D962465B1B0E
:101C580001339A401300013BAB40A840DB433C688A
:101C68000343234002313B604145E6D1334B3749BA
:101C78001A6837480A401A601A6836491A601A689A
:101C88000A4035491A600A6802400A601A681A60F0
:101C98004B461878C0B200F087FA53461878C0B29D
:101CA800FFF7E6FE00F090FA012000F075FA2B4CE1
:101CB800D4220021200000F025F90123236062B618
:101CC800C120274B80001A58264911408022D20390
:101CD8000A431A5040221A60FFF70EFF076085E793
:101CE800214CB25CA34692005A4414685B1BA3467D
:101CF800644601339C402300013BAB40A840DB43D2
:101D080018435B46023118401060884595D1ADE70D
:101D18000000FF1F0004FF1F191AFF1F9803FF1F71
:101D280000A0FF1F8804FF1F80C3C9011404FF1F00
:101D3800F421FF1F1804FF1F8C04FF1F14F000403C
:101D48004A0AFF1F3885FF1FE021FF1FFF7FFDFFA5
:101D5800FFFFC1FFFFFFBFFF1CF000406484FF1FAF
:101D680000E100E0FFFF00FF08F00040FEE7C0468A
:101D780010B500F027F80D480D4B984207D2C24322
:101D8800D2189208013292000A4900F079F80A48FC
:101D98000A4B984207D2C243D218920801329200E5
:101DA800002100F0AFF8FFF7FDFDC0460080FF1FDF
:101DB8004884FF1F5022FF1F4884FF1F3C89FF1FD4
:101DC800FEE7C046014A024B1A60704740787D0121
:101DD8000080FF1F10B5010000230022002000F042
:101DE800DBF810BD10B50021040000F03FF9044BEA
:101DF8001868C36B002B00D098472000FFF7E0FF5E
:101E08003C22FF1F70B5094B094CE41AA41009D0F5
:101E1800084AA518AD00ED182B68013C9847043D09
:101E2800002CF9D100F0B0F970BDC0464084FF1F06
:101E38004484FF1FFFFFFF3F70B50D4E0D4D00247A
:101E4800AD1BAD1005D0A300F35801349847A54247
:101E5800F9D100F093F9084E084D0024AD1BAD10E0
:101E680005D0A300F35801349847A542F9D170BDB5
:101E78003884FF1F3884FF1F3884FF1F4084FF1FEA
:101E8800F0B505000F2A2FD90B0003439B0734D167
:101E980016000C000300103E350901352D014519C7
:101EA80027681F6067685F60A7689F60E7681034ED
:101EB800DF6010339D42F3D10F239E4310368519FE
:101EC80089191340032B1AD91E1F0023B4080134A3
:101ED800A400CF58EF500433A342FAD10324A643F9
:101EE800331D2240C918ED18002A05D00023CC5C08
:101EF800EC5401339342FAD1F0BD0500F6E71A001D
:101F0800F2E7C046F0B5830743D0541E002A3FD0FD
:101F1800CEB20200032502E01A00013C38D3531C5C
:101F280016702B42F8D1032C2AD9FF220A40150239
:101F380015432A0415430F2C14D927001A00103F03
:101F48003E09013636019E19156055609560D560C9
:101F580010329642F8D10F2297431037DB191440FC
:101F6800032C0DD91A00271FBE080136B6009E198A
:101F780020C2B242FCD1032297430437DB19144034
:101F8800002C05D0C9B21C19197001339C42FBD131
:101F9800F0BD14000300C6E7F8B5DE469B46314B9A
:101FA80045461C68A4234E4657465B00E0B505002D
:101FB800E0580E00904600284BD043681F2B0DDCDC
:101FC8005C1C002D21D102339B0044601E50002070
:101FD8003CBC90469946A246AB46F8BD224B002B26
:101FE8003CD0C820400000E000BF002836D0A42222
:101FF80000235200A15843600160A0504032835032
:10200800043283500124002DDDD09A00914681448A
:10201800424688214F467A50C42252009046804456
:1020280042468739994012688A460A43944642468E
:1020380061461160842249465F4652008F50022D46
:10204800C1D1020055468D32FF3211680D4315602B
:10205800B9E720004D30FF30E050AEE701204042A4
:10206800B6E7C0463C22FF1F00000000F0B5574607
:10207800DE464E464546E0B50F00384B85B01B6836
:10208800019002934933FF330393A422029B520029
:102098009E58002E4ED0039B9946C4235B00984659
:1020A80004339A467468B044A5007519B244013CDB
:1020B80008D52DE06B1DFF331B689F4204D0043DFB
:1020C800013C25D3002FF5D173686A68013BA34210
:1020D80039D000236B60002AF1D0736841469B46D3
:1020E8000123A340096819422BD0514609681942B7
:1020F8002BD12B00843319680198904773685B458E
:10210800C3D14B461B68B342BFD1043D013CD9D271
:10211800134B002B0ED07368002B1BD13368002B98
:1021280008D04A463000136000E000BF4B461E68E6
:10213800002EB2D105B03CBC90469946A246AB46AB
:10214800F0BD9047DAE77460C5E72B008433186860
:102158009047D3E7B1463668EAE7C0463C22FF1FFE
:1021680000000000034B10B5002B02D00248FFF717
:1021780031FE10BD000000000D1EFF1FF8B5C0465F
:10218800F8BC08BC9E467047F8B5C046F8BC08BC09
:102198009E4670470000000001B40248844601BC16
:1021A800604700BF456B010001B40248844601BC8A
:1021B800604700BFEDA5000001B40248844601BC99
:1021C800604700BF0189000001B40248844601BC91
:1021D800604700BFADAE0000020003000500060026
:1021E8000700080009000A000C000D0000020100A9
:1021F8000504000807000B0A001716001D1C010241
:1022080001010504010E0D01111001141301171627
:10221800011A19020201020B0A020E0D0211100224
:102228001413021716030504030807030B0A030E09
:102238000D0000001080FF1F430000000000000098
:0822480064F7FF7F01000000B4
:1022500040787D01000000001080FF1F000000009A
:1022600000000000FC82FF1F6483FF1FCC83FF1F60
:10227000000000000000000000000000000000005E
:10228000000000000000000000000000000000004E
:10229000000000004022FF1F0000000000000000BE
:1022A000000000000000000000000000000000002E
:1022B000000000000000000000000000000000001E
:1022C000000000000000000000000000000000000E
:1022D00000000000000000000000000000000000FE
:1022E00000000000000000000000000000000000EE
:1022F00000000000000000000000000000000000DE
:1023000000000000000000000100000000000000CC
:102310000E33CDAB34126DE6ECDE05000B00000091
:1023200000000000000000000000000000000000AD
:10233000000000000000000000000000000000009D
:10234000000000000000000000000000000000008D
:10235000000000000000000000000000000000007D
:1026800000000000000000006D21FF1F7119FF1FF6
:082690004519FF1F00000000C6
:040000051FFF1D7943
:00000001FF
