:020000041FFFDC
:108000000080FF1FBD83FF1FB983FF1FB983FF1FC0
:108010000000000000000000000000000000000060
:10802000000000000000000000000000B983FF1FF6
:108030000000000000000000B983FF1FB983FF1F8C
:10804000B983FF1FB983FF1FB983FF1FB983FF1FC8
:10805000B983FF1FB983FF1FB983FF1FB983FF1FB8
:10806000B983FF1FB983FF1FB983FF1FB983FF1FA8
:10807000B983FF1FB983FF1FB983FF1FB983FF1F98
:10808000B983FF1FB983FF1FB983FF1FB983FF1F88
:10809000B983FF1FB983FF1FB983FF1F00000000D2
:1080A00000000000000000000000000000000000D0
:1080B00000000000000000000000000000000000C0
:1080C000054B0648033310B51B1A062B03D9044B86
:1080D000002B00D0984710BD4864FF1F4864FF1F65
:1080E000000000000648074910B5091A8910CB0F97
:1080F0005918491003D0044B002B00D0984710BDED
:108100004864FF1F4864FF1F0000000010B5074CC3
:108110002378002B09D1FFF7D3FF054B002B02D0AA
:10812000044800E000BF0123237010BD4864FF1F16
:10813000000000006488FF1F094B10B5002B03D01E
:108140000849094800E000BF08480368002B02D135
:10815000FFF7C8FF10BD064B002BF9D09847F7E793
:10816000000000004C64FF1F6488FF1F4464FF1F71
:1081700000000000144B002B00D1124B9D46402202
:1081800092029A1A924600218B460F461148124AD3
:10819000121A00F0DDF90D4B002B00D098470C4B64
:1081A000002B00D098470020002104000D000B4850
:1081B00000F036F900F066F92000290000F070F8B0
:1081C00000F036F9000008000080FF1F00000000EA
:1081D000000000004864FF1F3C69FF1F5184FF1F1F
:1081E00001281FD0002814D1154B16491A680A40DF
:1081F0001A601A6814490A4040211A60134B1A6821
:108200001A601A688A431A60114A124913680B40AF
:1082100013600F4B10491A681A60104A13680B401C
:10822000136070470A4A0E4913680B401360074BEE
:108230000C491A680A401A601A681A60E9E7C046D1
:108240000CF00040FFFFE7FFFFFF3FFF1CF0004086
:1082500014F00040FFFFFFB7FFFFF9FF18F00040E8
:10826000FFFFFF2FFFFDFFFF012208210220094B26
:10827000DA71094BDA688A43DA605A6902435A6153
:108280001A681A60054B5A680A435A601A680A430A
:108290001A60FEE76464FF1F003800400080004061
:1082A0003A4BF0B54E4699465746454602234A4654
:1082B000DE46E0B51370364B87B09A46012352462E
:1082C00001A913700A00334B334E31CB31C211CBAD
:1082D00011C206AB984601239C46304F0C78487873
:1082E00063001B19F5186A78AD78122C36D96346ED
:1082F000521B01329340013BAB40A840DB433C683A
:108300000343234002313B608845E7D1234B244996
:108310001A6824480A401A601A6823491A601A68C1
:108320000A4022491A600A6802400A601A681A6004
:108330004B461878C0B200F053FA53461878C0B2D2
:10834000FFF74EFF00F054FA194CD4220021200010
:1083500000F0FEF801232360FFF786FFF45C154B65
:10836000A4009B465C442368521B9B466346013233
:1083700093401A00013AAA40A840D2435B461043FA
:108380001840023120608845A8D1BFE74A0AFF1F84
:108390003865FF1F0088FF1F1488FF1F14F000407E
:1083A000FF7FFDFFFFFFC1FFFFFFBFFF1CF000408D
:1083B0006464FF1F08F00040FEE7C04610B500F0FF
:1083C00027F80D480D4B984207D2C243D2189208A5
:1083D000013292000A4900F079F80A480A4B9842A3
:1083E00007D2C243D218920801329200002100F055
:1083F000AFF8FFF7BFFEC0460060FF1F4864FF1FD5
:108400007088FF1F4864FF1F3C69FF1FFEE7C046DE
:10841000014A024B1A60704740787D010060FF1FDF
:1084200010B5010000230022002000F0DBF810BD91
:1084300010B50021040000F03FF9044B1868C36B2D
:10844000002B00D098472000FFF7E0FF5C88FF1F5B
:1084500070B5094B094CE41AA41009D0084AA518B4
:10846000AD00ED182B68013C9847043D002CF9D174
:1084700000F0B0F970BDC0464064FF1F4464FF1FA8
:10848000FFFFFF3F70B50D4E0D4D0024AD1BAD102D
:1084900005D0A300F35801349847A542F9D100F064
:1084A00093F9084E084D0024AD1BAD1005D0A30074
:1084B000F35801349847A542F9D170BD3864FF1FC5
:1084C0003864FF1F3864FF1F4064FF1FF0B50500CC
:1084D0000F2A2FD90B0003439B0734D116000C0041
:1084E0000300103E350901352D01451927681F602D
:1084F00067685F60A7689F60E7681034DF601033CB
:108500009D42F3D10F239E431036851989191340DC
:10851000032B1AD91E1F0023B4080134A400CF581E
:10852000EF500433A342FAD10324A643331D224063
:10853000C918ED18002A05D00023CC5CEC54013397
:108540009342FAD1F0BD0500F6E71A00F2E7C04603
:10855000F0B5830743D0541E002A3FD0CEB20200AC
:10856000032502E01A00013C38D3531C16702B423D
:10857000F8D1032C2AD9FF220A40150215432A04F8
:1085800015430F2C14D927001A00103F3E0901365D
:1085900036019E19156055609560D560103296427F
:1085A000F8D10F2297431037DB191440032C0DD953
:1085B0001A00271FBE080136B6009E1920C2B2421B
:1085C000FCD1032297430437DB191440002C05D05B
:1085D000C9B21C19197001339C42FBD1F0BD1400C3
:1085E0000300C6E7F8B5DE469B46314B45461C689E
:1085F000A4234E4657465B00E0B50500E0580E0048
:10860000904600284BD043681F2B0DDC5C1C002DCE
:1086100021D102339B0044601E5000203CBC904698
:108620009946A246AB46F8BD224B002B3CD0C82051
:10863000400000E000BF002836D0A42200235200F2
:10864000A15843600160A0504032835004328350EF
:108650000124002DDDD09A009146814442468821B4
:108660004F467A50C4225200904680444246873991
:10867000994012688A460A43944642466146116010
:10868000842249465F4652008F50022DC1D102001C
:1086900055468D32FF3211680D431560B9E7200051
:1086A0004D30FF30E050AEE701204042B6E7C04613
:1086B0005C88FF1F00000000F0B55746DE464E46BE
:1086C0004546E0B50F00384B85B01B68019002931A
:1086D0004933FF330393A422029B52009E58002E7D
:1086E0004ED0039B9946C4235B00984604339A46B8
:1086F0007468B044A5007519B244013C08D52DE05A
:108700006B1DFF331B689F4204D0043D013C25D301
:10871000002FF5D173686A68013BA34239D000236A
:108720006B60002AF1D0736841469B460123A34049
:10873000096819422BD05146096819422BD12B00E8
:10874000843319680198904773685B45C3D14B46E1
:108750001B68B342BFD1043D013CD9D2134B002B5F
:108760000ED07368002B1BD13368002B08D04A460B
:108770003000136000E000BF4B461E68002EB2D1EF
:1087800005B03CBC90469946A246AB46F0BD90472A
:10879000DAE77460C5E72B00843318689047D3E7A5
:1087A000B1463668EAE7C0465C88FF1F000000005B
:1087B000034B10B5002B02D00248FFF731FE10BD6D
:1087C000000000005184FF1FF8B5C046F8BC08BC8B
:1087D0009E467047F8B5C046F8BC08BC9E46704738
:1087E00001B40248844601BC604700BFEDA500000B
:1087F00001B40248844601BC604700BFADAE000032
:1088000002000300050006000700080009000A0036
:108810000C000D00000201000504000807000B0A0F
:10882000001716001D1C010201010504010E0D01B7
:108830001110011413011716011A19020201020B7B
:108840000A020E0D0211100214130217160305047A
:10885000030807030B0A030E0D0000001060FF1F42
:088860004300000000000000CD
:088868000CF9FF7F0100000084
:1088700040787D01000000001060FF1F0000000034
:1088800000000000FC62FF1F6463FF1FCC63FF1F3A
:1088900000000000000000000000000000000000D8
:1088A00000000000000000000000000000000000C8
:1088B000000000006088FF1F0000000000000000B2
:1088C00000000000000000000000000000000000A8
:1088D0000000000000000000000000000000000098
:1088E0000000000000000000000000000000000088
:1088F0000000000000000000000000000000000078
:108900000000000000000000000000000000000067
:108910000000000000000000000000000000000057
:108920000000000000000000010000000000000046
:108930000E33CDAB34126DE6ECDE05000B0000000B
:108940000000000000000000000000000000000027
:108950000000000000000000000000000000000017
:108960000000000000000000000000000000000007
:1089700000000000000000000000000000000000F7
:108CA0000000000000000000B187FF1F3981FF1F96
:088CB0000D81FF1F0000000010
:040000051FFF83BD99
:00000001FF
